:100000000C94DF000C9470050C9449050C940701C6
:100010000C9407010C9407010C9497050C940701AC
:100020000C9407010C9407010C9407010C94070130
:100030000C9407010C9407010C9407010C94070120
:100040000C94FF040C9407010C9407030C948F0A82
:100050000C9407010C9407010C9407010C94070100
:100060000C94A0060C94070100407A10F35A00A0EB
:10007000724E18090010A5D4E80000E87648170071
:1000800000E40B54020000CA9A3B000000E1F505B1
:10009000000080969800000040420F000000A086FB
:1000A00001000000102700000000E803000000002D
:1000B0006400000000000A000000000001000000D1
:1000C00000002C76D888DC674F0823DFC1DFAE59EB
:1000D000E1B1B796E5E3E453C63AE651997696E87E
:1000E000E6C28426EB898C9B62ED407C6FFCEFBC02
:1000F0009C9F40F2BAA56FA5F490055A2AF75C932D
:100100006B6CF9676DC11BFCE0E40D47FEF520E662
:10011000B500D0ED902E0300943577050080841E45
:10012000080000204E0A000000C80C333333330FA0
:10013000986E12831141EF8D2114893BE65516CF3D
:10014000FEE6DB18D1844B381BF77C1D901DA4BB49
:10015000E424203284725E228100C9F124ECA1E5FE
:100160003D270000000023002600290000000000B9
:10017000240027002A0000000000250028002B0092
:10018000040404040404040402020202020203033D
:100190000303030301020408102040800102040845
:1001A00010200102040810200000000800020100D5
:1001B000000304070000000000000000B50A11243D
:1001C0001FBECFEFD8E0DEBFCDBF11E0A0E0B1E0B1
:1001D000E0EDF3E202C005900D92AE36B107D9F71B
:1001E00023E0AEE6B1E001C01D92A533B207E1F70E
:1001F00010E0CFEDD0E004C02197FE010E94AE10C8
:10020000CE3DD107C9F70E94700B0C94E6110C94F7
:100210000000FC01538D448D252F30E0842F90E0A9
:10022000821B930B541710F0CF96089501970895F1
:10023000FC01918D828D981761F0828DDF01A80FEE
:10024000B11D5D968C91928D9F5F9F73928F90E010
:1002500008958FEF9FEF0895FC01918D828D98177F
:1002600031F0828DE80FF11D858D90E008958FEFBC
:100270009FEF0895FC01918D228D892F90E0805C85
:100280009F4F821B91098F739927089580E090E01A
:10029000892B29F00E943F0981110C9400000895D8
:1002A000833081F028F4813099F08230A1F00895F4
:1002B0008730A9F08830B9F08430D1F48091800083
:1002C0008F7D03C0809180008F7780938000089598
:1002D00084B58F7702C084B58F7D84BD08958091E9
:1002E000B0008F7703C08091B0008F7D8093B00005
:1002F00008953FB7F8948091270290912802A09129
:100300002902B0912A0226B5A89B05C02F3F19F0FB
:100310000196A11DB11D3FBFBA2FA92F982F882785
:10032000820F911DA11DB11DBC01CD0142E0660FE0
:10033000771F881F991F4A95D1F7089508950F9345
:100340001F93FC010285138524853585401B510BC5
:10035000620B730B77FD02C0808901C080E01F91A2
:100360000F910895FC0142835383648375838681D2
:100370009781A085B185480F591F6A1F7B1F42874F
:10038000538764877587089585ED8093BC008091BD
:10039000BC0084FDFCCF10922D0208954091D9013C
:1003A000262F30E0240F311D21323105DCF420915D
:1003B0002D022430C9F4FC0180E090E0861758F447
:1003C0003091D9012191DC01A954BE4FA30FB11D79
:1003D0002C930196F3CF8091D901680F6093D901D6
:1003E00080E0089581E0089582E008950895E09105
:1003F000310280913002E81730F4F0E0E956FE4F08
:10040000808190E008958FEF9FEF089590913102E1
:1004100080913002981750F4E92FF0E0E956FE4F32
:10042000208130E09F5F9093310202C02FEF3FEFB9
:10043000C90108958091300290E020913102821B21
:1004400091090895CF92DF92EF92FF920F931F933D
:10045000CF93DF937C01262F972F8A0180919601FD
:10046000882391F0C62FD72F6E01C40ED51ECC1550
:10047000DD0571F06991D701ED91FC910190F0815A
:10048000E02DC7010995F3CF642F822F0E94CE0182
:10049000C801DF91CF911F910F91FF90EF90DF90F6
:1004A000CF900895CF93DF931F92CDB7DEB76983C6
:1004B000209196012223D1F020912E02203240F08B
:1004C00021E030E0FC013383228380E090E015C01E
:1004D00080912F02E82FF0E0EA58FE4F9981908337
:1004E0008F5F80932F0280932E0205C061E0CE01C2
:1004F00001960E94CE0181E090E00F90DF91CF91B4
:100500000895089580E090E00895E0913202F0911E
:10051000330280819181A281B3810196A11DB11D19
:1005200080839183A283B38384819581A681B781DF
:100530000196A11DB11D84839583A683B783808511
:100540009185A285B3850097A105B10539F0019782
:10055000A109B10980879187A287B3878485958592
:10056000A685B7850097A105B10539F00197A109C6
:10057000B10984879587A687B7870895CF92DF92C0
:10058000EF92FF92CF93DF93C0913202D09133026A
:10059000688179818A819B8120E1C22E27E2D22E57
:1005A000E12CF12CA70196010E948C10288B398B2D
:1005B0004A8B5B8B6C817D818E819F810E94FE0FB7
:1005C00020E030E44CE156E40E948C0F6C8B7D8B74
:1005D0008E8B9F8B688579858A859B85A70196017F
:1005E0000E948C10398F288F6C857D858E859F8524
:1005F000A70196010E948C103B8F2A8FDF91CF912B
:10060000FF90EF90DF90CF9008950E94E1111F922C
:100610000F920FB60F9211242F938F939F93EF9306
:10062000FF93E0914402F09145028081E0914A02FB
:10063000F0914B0282FD12C0908180914D028F5F3C
:100640008F7320914E02821751F0E0914D02F0E03D
:10065000EC5CFD4F958F80934D0201C08081FF912E
:10066000EF919F918F912F910F900FBE0F901F9040
:100670001895FC01848DDF01A80FB11DA35ABF4F4F
:100680002C91848D90E001968F739927848FA68991
:10069000B7892C93A089B1898C9180648C93938DB8
:1006A000848D981306C00288F389E02D80818F7DA8
:1006B00080830895EF92FF920F931F93CF93DF9360
:1006C000EC0181E0888F9B8D8C8D981305C0E889A3
:1006D000F989808185FD24C0F62E0B8D10E00F5F17
:1006E0001F4F0F731127E02E8C8DE8120CC00FB630
:1006F00007FCFACFE889F989808185FFF5CFCE0123
:100700000E943903F1CF8B8DFE01E80FF11DE35AF2
:10071000FF4FF0820B8FEA89FB898081806207C0DE
:10072000EE89FF896083E889F9898081806480830C
:1007300081E090E0DF91CF911F910F91FF90EF90BA
:100740000895CF93DF93EC01888D8823C9F0EA895F
:10075000FB89808185FD05C0A889B9898C9186FDBA
:100760000FC00FB607FCF5CF808185FFF2CFA889B7
:10077000B9898C9185FFEDCFCE010E943903E7CF77
:10078000DF91CF9108951F93CF93DF93282F30E00F
:10079000F901E855FE4F8491F901EC56FE4FD491D2
:1007A000F901E058FE4FC491CC23C9F0162F8111F6
:1007B0000E945001EC2FF0E0EE0FFF1FEA58FE4FB1
:1007C000A591B4918FB7F894111105C09C91ED2FAC
:1007D000E095E92302C0EC91ED2BEC938FBFDF9104
:1007E000CF911F910895CF93DF93EC0160E08E814C
:1007F0000E94C30361E08E810E94C30360E08E818A
:100800000E94C3038BE891E00197F1F7DF91CF914C
:100810000895CF93DF9390E0FC01EC56FE4F2491B6
:10082000FC01E058FE4F8491882361F190E0880F2D
:10083000991FFC01E459FE4FC591D491FC01EA587F
:10084000FE4FA591B491611109C09FB7F8948881BA
:10085000209582238883EC912E230BC0623061F4B3
:100860009FB7F8943881822F809583238883EC91F9
:100870002E2B2C939FBF06C08FB7F894E8812E2BA8
:1008800028838FBFDF91CF9108952FB7F89460919F
:1008900023027091240280912502909126022FBF9D
:1008A00008950F931F93CF93DF93EC01EE85FF859F
:1008B000309709F009950E9445046E837F838887ED
:1008C00099870A811B812C813D81DC01CB01800F3E
:1008D000911FA21FB31F8A879B87AC87BD87DF91BB
:1008E000CF911F910F910895CF92DF92EF92FF92D7
:1008F0000F931F93CF93DF93ECEAF1E08491E8E943
:10090000F1E0D491E4E8F1E0C491CC23A1F08111AD
:100910000E945001EC2FF0E0EE0FFF1FEE59FE4F4A
:10092000A591B491EC91ED2391E080E009F490E081
:10093000C92FD82F02C0C0E0D0E00E9445046B014F
:100940007C0180917301909174018601081B190B41
:1009500080917101909172010197B9F480917001B9
:10096000811113C0003D87E018077CF065E471E059
:1009700084E392E00E94010A60E571E084E392E082
:100980000E94010A81E08093700180917101909131
:1009900072010197C1F42097B1F480917001811127
:1009A00012C0003D17407CF463E571E084E392E0FF
:1009B0000E94010A60E571E084E392E00E94010A6E
:1009C00081E0809370018091710190917201892B77
:1009D00049F4C130D10531F4D0927401C092730151
:1009E00010927001D0937201C0937101DF91CF9189
:1009F0001F910F91FF90EF90DF90CF9008951F927D
:100A00000F920FB60F9211242F933F938F939F93C2
:100A1000AF93BF938091230290912402A09125026D
:100A2000B09126023091220223E0230F2D3720F4CB
:100A30000196A11DB11D05C026E8230F0296A11D38
:100A4000B11D209322028093230290932402A0934D
:100A50002502B09326028091270290912802A0914E
:100A60002902B0912A020196A11DB11D809327028F
:100A700090932802A0932902B0932A02BF91AF91CC
:100A80009F918F913F912F910F900FBE0F901F90CC
:100A900018951F920F920FB60F9211242F933F9328
:100AA0004F935F936F937F938F939F93AF93BF9376
:100AB000EF93FF93E0910301F09104010995FF91F9
:100AC000EF91BF91AF919F918F917F916F915F91C6
:100AD0004F913F912F910F900FBE0F901F9018953F
:100AE0001F920F920FB60F9211242F933F934F93A3
:100AF0005F936F937F938F939F93AF93BF93EF9386
:100B0000FF93E0910101F09102010995FF91EF91AE
:100B1000BF91AF919F918F917F916F915F914F9115
:100B20003F912F910F900FBE0F901F9018951F921D
:100B30000F920FB60F9211248F930FB6F894A895C9
:100B400080916000886180936000109260000FBE09
:100B50008F910F900FBE0F901F901895CF92DF923C
:100B6000EF92FF920F931F93CF93DF937C016C0161
:100B700087E0C80ED11CC0E0D0E0062F10E0B8011D
:100B80000C2E02C0759567950A94E2F76170F60124
:100B900081916F010E94C3032196C430D10579F77A
:100BA000C701DF91CF911F910F91FF90EF90DF90E0
:100BB000CF900C94F303CF92DF92EF92FF920F93BA
:100BC0001F93CF93DF93EC01F62E642F8C810E944C
:100BD000C3038D818F3F19F060E00E94C3038F85AE
:100BE0000F2D10E084FF25C06E0187E0C80ED11CD8
:100BF000E12CF12CB8010E2C02C0759567950A9472
:100C0000E2F76170F60181916F010E94C303FFEF6B
:100C1000EF1AFF0A88E0E816F10461F7CE01DF91D0
:100C2000CF911F910F91FF90EF90DF90CF900C9498
:100C3000F303B80184E0759567958A95E1F7CE01D5
:100C40000E94AE056F2DCE01DF91CF911F910F91C4
:100C5000FF90EF90DF90CF900C94AE0541E00E94A2
:100C6000DB0581E090E0089540E00C94DB050F93F4
:100C70001F93CF93DF9380916E0190916F01892B29
:100C800069F061E08DED92E00E9434068BE39FE114
:100C90000197F1F710926F0110926E0160E080E011
:100CA0000E94EC096FE571E08DED92E00E94010A6F
:100CB00060E087E00E94EC09E0913202F09133029B
:100CC00060897189828993894AE00E94160A88E0C6
:100CD00090E00E94B410EC010896FE011192E81712
:100CE000F907E1F7E0913202F091330264897589E6
:100CF000868997898E0121E049EF0E94060D61E007
:100D000080E00E94EC0966E671E08DED92E00E94C1
:100D1000010A61E087E00E94EC09BE018DED92E0DE
:100D20000E94010A209739F0CE01DF91CF911F91E7
:100D30000F910C944911DF91CF911F910F9108955C
:100D40001F920F920FB60F9211242F933F934F9340
:100D50005F936F937F938F939F93AF93BF93EF9323
:100D6000FF938091B900887F803609F49CC068F5B4
:100D7000883209F45BC090F4803109F454C038F42F
:100D8000882309F4F6C0883009F44DC0F6C08831D4
:100D900009F44CC0803209F45DC0EFC0803409F41E
:100DA00068C048F4803309F455C0883309F0E5C0C1
:100DB0008093FE01D8C0803509F44FC0883509F40E
:100DC0005DC0883409F0D9C0D6C0883909F4C7C0DD
:100DD000A8F4883709F467C038F4883609F463C08A
:100DE000803709F460C0C9C0883809F4B8C08039B8
:100DF00009F45FC0803809F0C0C05BC0803B09F4D3
:100E000086C038F4803A09F466C0883A09F47FC095
:100E1000B4C0803C09F4A7C0883C09F4A4C0883B56
:100E200009F48AC0AAC08091210210C090912002CA
:100E300080911F02981770F5E091200281E08E0FDB
:100E400080932002F0E0E150FE4F80818093BB0050
:100E500085EC86C08093FE018EC0E091200281E087
:100E60008E0F809320028091BB00F0E0E150FE4F96
:100E700080839091200280911F026EC0E091200239
:100E800081E08E0F809320028091BB00F0E0E15062
:100E9000FE4F808380912C0281116DC081E0809390
:100EA0002B0284EA61C083E080932D021092FD0141
:100EB000CFCF8091FD01803208F051C0E091FD015B
:100EC00081E08E0F8093FD018091BB00F0E0E35242
:100ED000FE4F8083BDCF85EC8093BC0010922D0225
:100EE0008091FD01803230F4E091FD01F0E0E352A9
:100EF000FE4F10826091FD0170E0E091DB01F09106
:100F0000DC018DED91E009951092FD0136C084E081
:100F100080932D021092DA011092D901E091D7014D
:100F2000F091D80109958091D901811105C081E026
:100F30008093D9011092B701E091DA0181E08E0F20
:100F40008093DA01F0E0E954FE4F80818093BB008A
:100F50009091DA018091D901981708F479CF85E84A
:100F60008093BC000AC085EC8093BC0010922D02D7
:100F700004C01092FE010E94C401FF91EF91BF9145
:100F8000AF919F918F917F916F915F914F913F9121
:100F90002F910F900FBE0F901F9018952F923F9298
:100FA0004F925F926F927F928F929F92AF92BF9279
:100FB000CF92DF92EF92FF920F931F93CF93DF9325
:100FC000CDB7DEB727970FB6F894DEBF0FBECDBF03
:100FD0009E838D839E012F5F3F4F69018B01FF240C
:100FE000F3949FEF292E91E0392E25EEE22E34E086
:100FF0003C0D3F83ED81FE8160807180F301B08004
:10100000F0929601B092750110922F0210922E026A
:10101000612F81ED92E00E945202602F81ED92E0FB
:101020000E94520280912E02813208F046C09091B7
:101030002D029111FCCFF2E0F0932D02F0922C02E0
:101040002FEF2093FE011092200280931F02A6E74B
:10105000B1E0EFEFF1E09E2F9219981718F49D91EF
:101060009193F9CF10922102809121022B2D220F12
:10107000282B2093210280912B02813071F4109251
:101080002B02809121028093BB008091BC0083FDE4
:10109000F8CF35EC3093BC0002C0E092BC008091E8
:1010A0002D028230E1F38091FE018F3F31F080917B
:1010B000FE01803211F08091FE0110922F021092F9
:1010C0002E0210929601F301808190912D029111D0
:1010D000FCCFF0922D02F0922C02FFEFF093FE0174
:1010E0001092200210921F02F09221029091210290
:1010F000880F892B8093210280912B02813071F41B
:1011000010922B02809121028093BB008091BC0041
:1011100083FDF8CF25EC2093BC0002C0E092BC0018
:1011200080912D028130E1F380912002811103C072
:101130008091200201C081E0AFEFB1E0E7E9F1E08A
:101140009E2F27E931E0921B981718F49D919193F7
:10115000F7CF1092310280933002882329F081ED7D
:1011600092E00E94060201C080E0F60181936F01C7
:101170000E9479014B015C018AE0482E512C612CC0
:10118000712C0E947901DC01CB0188199909AA0907
:10119000BB09883E9340A105B10558F0F1E04F1A14
:1011A00051086108710828EE820E23E0921EA11CEE
:1011B000B11C411451046104710419F70F5F1F4FF2
:1011C0002F812C1117CF69817A818B819C81279681
:1011D0000FB6F894DEBF0FBECDBFDF91CF911F9148
:1011E0000F91FF90EF90DF90CF90BF90AF909F90C6
:1011F0008F907F906F905F904F903F902F900895C9
:101200000F931F93CF93DF93EC01E881F981028163
:1012100013810E944504AB01BC01CE01F801DF91AE
:10122000CF911F910F910994CF92DF92EF92FF928D
:101230000F931F93CF93DF936C017A018B01C0E072
:10124000D0E0CE15DF0589F0D8016D918D01D60172
:10125000ED91FC910190F081E02DC6010995892B5B
:1012600011F47E0102C02196ECCFC701DF91CF912E
:101270001F910F91FF90EF90DF90CF90089584E33E
:1012800092E00E943A0121E0892B09F420E0822FAC
:101290000895EF92FF920F931F93CF93DF93EC018A
:1012A000623018F08F8588608F876B8B1C8A80E492
:1012B0008D8B80E18E8B80E58F8B61E08C810E942D
:1012C00009048D818F3F19F061E00E94090461E0FB
:1012D0008E810E9409047E0187E0E80EF11C00E087
:1012E00010E08F8584FD03C084E090E002C088E0B8
:1012F00090E0081719074CF461E0F70181917F0134
:101300000E9409040F5F1F4FECCF8BE39DE0019714
:10131000F1F760E08C810E94C30360E08E810E943F
:10132000C3038D818F3F19F060E00E94C3036F8576
:1013300064FD1DC063E0CE010E94AE050BE416E41F
:10134000C8010197F1F763E0CE010E94AE05C80124
:101350000197F1F763E0CE010E94AE0583E592E0CC
:101360000197F1F762E0CE010E94AE0516C06062FF
:10137000CE010E9434068BE496E40197F1F76F8565
:101380006062CE010E94340683E592E00197F1F796
:101390006F856062CE010E9434066F856062CE0167
:1013A0000E94340684E0888B6CE0CE010E943406F3
:1013B00061E0CE010E9434068BE39FE10197F1F7D3
:1013C00082E0898B66E0CE01DF91CF911F910F9172
:1013D000FF90EF900C943406643008F063E0909135
:1013E000F002691710F06FEF690FE62FF0E0E3529B
:1013F000FD4F9489682F690F60688DED92E00C9421
:1014000034066115710579F0FB0101900020E9F7C0
:101410003197AF01461B570BDC01ED91FC91028027
:10142000F381E02D099480E090E008958F929F92DF
:10143000AF92BF920F931F93CF93DF93CDB7DEB7D9
:10144000A1970FB6F894DEBF0FBECDBF19A24230F0
:1014500008F44AE08E010F5D1F4F842E912CA12CC1
:10146000B12CA50194010E948C10E62FB901CA018C
:1014700001501109EA3014F4E05D01C0E95CD801C3
:10148000EC93232B242B252B61F7B8018DED92E0F3
:101490000E94010AA1960FB6F894DEBF0FBECDBF21
:1014A000DF91CF911F910F91BF90AF909F908F9040
:1014B0000895CF92DF92EF92FF92CF93DF936C016A
:1014C000990FEE08FF08F7FE1FC0E091DD02F091D2
:1014D000DE020190F081E02D6DE28DED92E0099544
:1014E000EC0166277727CB016C197D098E099F09CE
:1014F0004AE00E94160A8C0F9D1FDF91CF91FF904A
:10150000EF90DF90CF9008954AE0C701B601DF91D8
:10151000CF91FF90EF90DF90CF900C94160A1F921E
:101520000F920FB60F9211242F933F934F935F9317
:101530006F937F938F939F93AF93BF93EF93FF939B
:1015400084E392E00E943903FF91EF91BF91AF9144
:101550009F918F917F916F915F914F913F912F91CB
:101560000F900FBE0F901F901895EF92FF921F9350
:10157000CF93DF93E4E3F2E01382128288EE93E0EC
:10158000A0E0B0E084839583A683B7832FE031E0A9
:101590003183208325EC30E03587248724EC30E04C
:1015A0003787268720EC30E0318B208B21EC30E030
:1015B000338B228B22EC30E0358B248B26EC30E011
:1015C000378B268B118E128E138E148EE1EDF2E086
:1015D0001382128284839583A683B78381E291E08C
:1015E00091838083EDEDF2E0138212828DE391E02E
:1015F000918380838AE084838FEF858389E086836B
:1016000088E0878387E0808786E0818785E082871E
:101610001386148615861686178661E0CF010E9410
:10162000490980E580933003CDE1D3E083E3E82EE0
:1016300081E0F82EF982E88211E0188B1F861E8661
:101640001A861B861C861D860E9445046E837F8336
:1016500088879987DA8BC98B1A821B821C821D822C
:101660006A877B878C879D87CAE0D3E0F982E8820E
:10167000188B1F861E861A861B861C861D860E9456
:1016800045046E837F8388879987DA8BC98B1A829A
:101690001B821C821D826A877B878C879D87C7EF90
:1016A000D2E0F982E882188B1F861E861A861B8676
:1016B0001C861D860E9445046E837F8388879987D8
:1016C000DA8BC98B1A821B821C821D826A877B87F8
:1016D0008C879D87DF91CF911F91FF90EF900895A8
:1016E000789484B5826084BD84B5816084BD85B5FD
:1016F000826085BD85B5816085BD80916E00816009
:1017000080936E00109281008091810082608093AE
:1017100081008091810081608093810080918000B0
:101720008160809380008091B10084608093B100DB
:101730008091B00081608093B00080917A008460D5
:1017400080937A0080917A00826080937A00809101
:101750007A00816080937A0080917A00806880931B
:101760007A001092C100E0914402F091450282E0BB
:101770008083E0914002F09141021082E0914202A8
:10178000F09143028FEC808310924C02E09148026A
:10179000F091490286E08083E0914602F091470291
:1017A000808180618083E0914602F09147028081D0
:1017B00088608083E0914602F091470280818068D2
:1017C0008083E0914602F091470280818F7D808383
:1017D00062E08DED92E00E94490910923102109270
:1017E000300210922F0210922E0210922D02C1E0B0
:1017F000C0932C0210922B0261E082E10E94C3038D
:1018000061E083E10E94C3038091B9008E7F8093E1
:10181000B9008091B9008D7F8093B90088E48093EE
:10182000B80085E48093BC00C093000161E08BE0C8
:101830000E94090461E08CE00E94090460E084E0F9
:101840000E94090461E08BE00E94C30361E08CE028
:101850000E94C30385E892E0909302018093010106
:10186000809169008C7F816080936900E89A8EEB9B
:1018700092E090932C0380932B0388EC90E0A0E0FF
:10188000B0E080931F0390932003A0932103B093B3
:1018900022038091230390912403A0912503B0910A
:1018A000260388539F4FAF4FBF4F809327039093DA
:1018B0002803A0932903B0932A0387E396E090932B
:1018C00019038093180344E650E060E070E0409311
:1018D0000C0350930D0360930E0370930F038091DC
:1018E000100390911103A0911203B09113038C592E
:1018F0009F4FAF4FBF4F8093140390931503A09356
:101900001603B093170384E794E090930603809343
:1019100005034093F9025093FA026093FB0270931F
:10192000FC028091FD029091FE02A091FF02B09115
:1019300000038C599F4FAF4FBF4F8093010390938B
:101940000203A0930303B09304038CE190E00E9490
:10195000B410EC018CE1FE0111928A95E9F7D09365
:101960003302C093320282E090E00E94B4108C01F6
:1019700080E393E0F801918380831093F602009353
:10198000F50268E070E0C8010E94CE076887798799
:101990008A879B876CE070E0C8010E94CE076C8745
:1019A0007D878E879F8760E170E0C8010E94CE0727
:1019B000688379838A839B8364E170E0C8010E9415
:1019C000CE076C837D838E839F838AE093E00E94A1
:1019D0000009882321F08AE093E00E9451048DE100
:1019E00093E00E940009882321F08DE193E00E949A
:1019F000510487EF92E00E940009882321F087EFCD
:101A000092E00E9451040E944601DFCFEF920F93B3
:101A10001F93CF93DF93E80147FD02C034E001C07C
:101A200034E1E42F440FFF0BF7FF03C0F195E1957C
:101A3000F109E32E022F2E2FAE010E94260DCE01BA
:101A4000DF91CF911F910F91EF9008954F925F9288
:101A50006F927F929F92AF92BF92CF92DF92EF925E
:101A6000FF920F931F93CF93DF93CDB7DEB72997E4
:101A70000FB6F894DEBF0FBECDBF6A01122FB02E95
:101A80002BE3201720F0FF24F394F00E02C0BCE3F8
:101A9000FB2E0F2D27E0AE014F5F5F4F0E94B40E6B
:101AA000AC018981982F9970913031F0E1FC06C02A
:101AB000E0FE06C090E205C09DE203C09BE201C0CB
:101AC00090E0EE2DE07183FF3CC0911102C083E0F5
:101AD00001C084E0811718F4212F281B01C020E0E9
:101AE000E1110BC0F601822F30E2882319F0319307
:101AF0008150FBCFC20ED11C20E0992329F0D601E2
:101B00009C93F60131966F01C6010396E2FE0AC06E
:101B10003EE4D6013C9341E411964C931197129602
:101B20003C9306C03EE6F601308341E641833283B2
:101B3000FC01322F40E2332309F442C0419331507B
:101B4000FACF82FF44C0911102C083E001C084E05B
:101B5000811718F4212F281B01C020E0E1110BC0D0
:101B6000F601822F30E2882319F031938150FBCFA8
:101B7000C20ED11C20E0992329F0D6019C93F601D6
:101B800031966F01C6010396E2FE0BC039E4D6011F
:101B90003C933EE411963C93119736E412963C93A5
:101BA00007C039E6F60130833EE6318336E63283FC
:101BB000FC01322F40E2332319F041933150FBCF27
:101BC000FC01E20FF11D10828EEF9FEFB7C0F1E034
:101BD000911101C0F0E06F2F70E01416150624F487
:101BE0009A012F5F3F4F02C021E030E0260F371FE0
:101BF000BB2029F06B2D70E06F5F7F4F02C060E06B
:101C000070E0260F371F612F70E0261737071CF48E
:101C1000121B212F01C020E03E2D387159F4D6014E
:101C2000322F60E2332319F06D933150FBCFC20E97
:101C3000D11C20E0FF2331F0D6019C93B6016F5FE9
:101C40007F4F6B01E1110BC0F601922F30E3992316
:101C500019F031939150FBCFC20ED11C20E09F2D83
:101C6000940F3A81782F7071A72E84FF03C031330F
:101C700009F49150191624F4993018F098E001C035
:101C800091E0E42F852F57FF02C0E0E080E06E2F47
:101C9000782FE0E0F0E0AEE29A2E3A01691A71087E
:101CA0002A01461A570A0B2D10E0119501951109CA
:101CB0006F3F8FEF780729F4D6019C92C6010196F9
:101CC0006C014617570784F0661677066CF47F019F
:101CD000E40CF51CA1E0B0E0AC0FBD1FEA0EFB1E4A
:101CE000D7011196BC9002C090E3B92E61507109E2
:101CF0003196C60101967C016017710724F0D60168
:101D0000BC926C01D5CF6417750741F4363320F4CB
:101D1000353321F4A11002C081E3B82EF601B08260
:101D2000F701822F90E2882319F091938150FBCF25
:101D3000F701E20FF11D108280E090E029960FB6C6
:101D4000F894DEBF0FBECDBFDF91CF911F910F91F1
:101D5000FF90EF90DF90CF90BF90AF909F907F90DB
:101D60006F905F904F900895283008F027E0332758
:101D7000DA01990F311D87FD9160009661057105AB
:101D800039F432602E5F3D9330E32A95E1F70895F0
:101D90009F3F30F080387105610509F03C5F3C5F82
:101DA0003D93913008F08068911DDF93CF931F938E
:101DB0000F93FF92EF92192F987F9695E92F9695A2
:101DC0009695E90FFF27EE53FF4F99273327EE240F
:101DD000FF24A701E70105900894079428F4360F23
:101DE000E71EF81E491F511D660F771F881F991F98
:101DF0000694A1F70590079428F4E70EF81E491FF2
:101E0000561FC11D770F881F991F661F0694A1F7E3
:101E10000590079428F4F80E491F561FC71FD11DBF
:101E2000880F991F661F771F0694A1F705900794E6
:101E300020F4490F561FC71FD81F990F661F771F21
:101E4000881F0694A9F784911095177041F0D695D4
:101E5000C79557954795F794E7941A95C1F7E8E623
:101E6000F0E06894159015913591659195910590E4
:101E70007FE27395E118F10A430B560BC90BD009A9
:101E8000C0F7E10CF11E431F561FC91FD01D7EF481
:101E9000703311F48A95E6CFE894015030F0080FC2
:101EA0000AF40027021708F4202F2395022F7A3313
:101EB00028F079E37D932A95E9F710C07D932A9560
:101EC00089F6069497956795379517951794E118B5
:101ED000F10A430B560BC90BD00998F023957E915C
:101EE00073957A3308F070E37C932013B8F77E91F2
:101EF00070617D9330F0839571E37D9370E32A9553
:101F0000E1F71124EF90FF900F911F91CF91DF9196
:101F1000992787FD909508950E94A00F0C94521068
:101F20000E944B1058F00E94441040F029F45F3F8B
:101F300029F00C943B1051110C9486100C94411014
:101F40000E94631068F39923B1F3552391F3951B15
:101F5000550BBB27AA2762177307840738F09F5FCA
:101F60005F4F220F331F441FAA1FA9F335D00E2E37
:101F70003AF0E0E832D091505040E695001CCAF7A4
:101F80002BD0FE2F29D0660F771F881FBB1F261767
:101F900037074807AB07B0E809F0BB0B802DBF013E
:101FA000FF2793585F4F3AF09E3F510578F00C940D
:101FB0003B100C9486105F3FE4F3983ED4F3869573
:101FC00077956795B795F7959F5FC9F7880F911D2E
:101FD0009695879597F90895E1E0660F771F881F1A
:101FE000BB1F621773078407BA0720F0621B730BCD
:101FF000840BBA0BEE1F88F7E0950895E89409C0AA
:1020000097FB3EF490958095709561957F4F8F4F2B
:102010009F4F9923A9F0F92F96E9BB279395F69541
:10202000879577956795B795F111F8CFFAF4BB0FBF
:1020300011F460FF1BC06F5F7F4F8F4F9F4F16C023
:10204000882311F096E911C0772321F09EE8872FAD
:10205000762F05C0662371F096E8862F70E060E069
:102060002AF09A95660F771F881FDAF7880F9695E2
:10207000879597F9089597F99F6780E870E060E089
:1020800008959FEF80EC089500240A941616170611
:1020900018060906089500240A9412161306140659
:1020A00005060895092E0394000C11F4882352F0BC
:1020B000BB0F40F4BF2B11F460FF04C06F5F7F4F74
:1020C0008F4F9F4F089557FD9058440F551F59F05B
:1020D0005F3F71F04795880F97FB991F61F09F3F15
:1020E00079F087950895121613061406551FF2CF3E
:1020F0004695F1DF08C0161617061806991FF1CF8E
:1021000086957105610508940895E894BB276627B4
:102110007727CB0197F90895A1E21A2EAA1BBB1BC2
:10212000FD010DC0AA1FBB1FEE1FFF1FA217B307A3
:10213000E407F50720F0A21BB30BE40BF50B661FB9
:10214000771F881F991F1A9469F76095709580957D
:1021500090959B01AC01BD01CF010895EE0FFF1FCB
:102160000590F491E02D0994CF93DF93823091058F
:1021700010F482E090E0E0913303F091340320E02A
:1021800030E0C0E0D0E0309711F140815181481734
:102190005907C0F04817590761F48281938120974D
:1021A00019F09B838A832BC090933403809333036D
:1021B00026C02115310519F04217530718F49A016A
:1021C000BE01DF01EF010280F381E02DDCCF21159C
:1021D000310509F1281B390B2430310590F4129692
:1021E0008D919C9113976115710521F0FB019383EB
:1021F000828304C09093340380933303FD013296AD
:1022000044C0FD01E20FF31F8193919322503109E5
:102210002D933C933AC02091310330913203232B0C
:1022200041F420910701309108013093320320934B
:10223000310320910501309106012115310541F44A
:102240002DB73EB74091090150910A01241B350B6F
:10225000E0913103F0913203E217F307A0F42E1B53
:102260003F0B2817390778F0AC014E5F5F4F2417FA
:10227000350748F04E0F5F1F5093320340933103F0
:102280008193919302C0E0E0F0E0CF01DF91CF9124
:1022900008950F931F93CF93DF93009709F48CC099
:1022A000FC013297138212820091330310913403A0
:1022B0000115110581F420813181820F931F209136
:1022C0003103309132032817390779F5F09332033F
:1022D000E093310371C0D80140E050E0AE17BF0772
:1022E00050F412962D913C911397AD0121153105B3
:1022F00009F1D901F3CF9D01DA0133832283608193
:102300007181860F971F8217930769F4EC0128816A
:102310003981260F371F2E5F3F4F318320838A81FB
:102320009B8193838283452B29F4F0933403E093BC
:10233000330342C01396FC93EE931297ED0149913B
:1023400059919E01240F351FE217F30771F4808124
:102350009181840F951F029611969C938E93828192
:10236000938113969C938E931297E0E0F0E0D8014E
:1023700012968D919C911397009719F0F8018C019A
:10238000F6CF8D919C9198012E5F3F4F820F931F46
:1023900020913103309132032817390769F43097BF
:1023A00029F4109234031092330302C01382128274
:1023B0001093320300933103DF91CF911F910F915E
:1023C000089581E090E0F8940C94E611F894FFCF22
:1023D000019E019E01000035038000000000005AAC
:1023E0000314090901A1033A0118012C010000009E
:1023F00000520222028202F6011A020602F70100CE
:10240000000000B2019F015104000000002E0614DC
:1024100009820281024C6F6E6720707265737300CF
:102420000D0A005368726F742070726573730054E4
:0E2430006F74616C3A004461696C793A000087
:107800000C94343C0C94513C0C94513C0C94513CE1
:107810000C94513C0C94513C0C94513C0C94513CB4
:107820000C94513C0C94513C0C94513C0C94513CA4
:107830000C94513C0C94513C0C94513C0C94513C94
:107840000C94513C0C94513C0C94513C0C94513C84
:107850000C94513C0C94513C0C94513C0C94513C74
:107860000C94513C0C94513C11241FBECFEFD8E036
:10787000DEBFCDBF11E0A0E0B1E0ECE9FFE702C060
:1078800005900D92A230B107D9F712E0A2E0B1E065
:1078900001C01D92AD30B107E1F70E942D3D0C945F
:1078A000CC3F0C94003C982F959595959595959582
:1078B000905D8F708A307CF0282F295A8091C0000B
:1078C00085FFFCCF9093C6008091C00085FFFCCF60
:1078D0002093C6000895282F205DF0CF982F809127
:1078E000C00085FFFCCF9093C6000895EF92FF92F1
:1078F0000F931F93EE24FF2487018091C00087FD22
:1079000017C00894E11CF11C011D111D81E4E8164B
:1079100082E4F8068FE0080780E0180770F3E09132
:107920000401F091050109958091C00087FFE9CF1E
:107930008091C6001F910F91FF90EF9008950E94D3
:10794000763C982F8091C00085FFFCCF9093C600B5
:1079500091362CF490330CF09053892F089597555D
:10796000892F08951F930E949F3C182F0E949F3CCF
:107970001295107F810F1F9108951F93182F882350
:1079800021F00E94763C1150E1F71F9108951F935A
:10799000182F0E94763C803249F0809103018F5F5E
:1079A000809303018530C1F01F9108958091C0003C
:1079B00085FFFCCF84E18093C6008091C00085FFE5
:1079C000FCCF1093C6008091C00085FFFCCF80E102
:1079D0008093C6001F910895E0910401F091050184
:1079E00009951F9108950E94763C803241F0809164
:1079F00003018F5F80930301853081F008958091AA
:107A0000C00085FFFCCF84E18093C6008091C00058
:107A100085FFFCCF80E18093C6000895E0910401CA
:107A2000F09105010995089540E951E08823A1F0FE
:107A30002D9A28EE33E0FA013197F1F721503040CA
:107A4000D1F72D9828EE33E0FA013197F1F7215064
:107A50003040D1F7815061F708953F924F925F9285
:107A60006F927F928F929F92AF92BF92CF92DF924E
:107A7000EF92FF920F931F93CF93DF93000080E16B
:107A80008093C4001092C50088E18093C10086E015
:107A90008093C2005098589A259A81E00E94143D24
:107AA00024E1F22E9EE1E92E85E9D82E0FE0C02ECA
:107AB00010E1B12EAA24A394B1E49B2EA6E58A2E50
:107AC000F2E57F2EE0E26E2E79E4572E63E5462E36
:107AD00050E5352E0E94763C8033B1F18133B9F107
:107AE000803409F46FC0813409F476C0823409F41B
:107AF00085C0853409F488C0803531F1823521F1A3
:107B0000813511F1853509F485C0863509F48DC0BC
:107B1000843609F496C0843709F403C1853709F423
:107B200072C1863709F466C0809103018F5F80932C
:107B30000301853079F6E0910401F0910501099582
:107B40000E94763C803351F60E94F33CC3CF0E94E2
:107B5000763C803249F78091C00085FFFCCFF092DF
:107B6000C6008091C00085FFFCCF9092C600809136
:107B7000C00085FFFCCF8092C6008091C00085FFC9
:107B8000FCCF7092C6008091C00085FFFCCF609250
:107B9000C6008091C00085FFFCCF5092C600809146
:107BA000C00085FFFCCF4092C6008091C00085FFD9
:107BB000FCCF3092C6008091C00085FFFCCFB09210
:107BC000C60088CF0E94763C863808F4BDCF0E945C
:107BD000763C0E94F33C7ECF0E94763C803809F4CC
:107BE0009CC0813809F40BC1823809F43CC1883942
:107BF00009F48FC080E00E94C73C6CCF84E10E94F2
:107C0000BD3C0E94F33C66CF85E00E94BD3C0E94D3
:107C1000F33C60CF0E94763C809306010E94763C44
:107C2000809307010E94F33C55CF0E94763C80333D
:107C300009F41DC183E00E94BD3C80E00E94C73C66
:107C400049CF0E94763C809309020E94763C809343
:107C5000080280910C028E7F80930C020E94763C79
:107C6000853409F415C18091080290910902892B8D
:107C700089F000E010E00E94763CF801E85FFE4FDA
:107C800080830F5F1F4F80910802909109020817AF
:107C9000190788F30E94763C803209F045CF809125
:107CA0000C0280FF01C16091060170910701660F0F
:107CB000771F7093070160930601A0910802B091AD
:107CC00009021097C9F0E8E0F1E09B01AD014E0F09
:107CD0005F1FF999FECF32BD21BD819180BDFA9A17
:107CE000F99A2F5F3F4FE417F50799F76A0F7B1F4B
:107CF00070930701609306018091C00085FFFCCF5F
:107D0000F092C6008091C00085FFFCCFB092C60003
:107D1000E1CE83E00E94C73CDDCE82E00E94C73CFA
:107D2000D9CE0E94763C809309020E94763C8093D3
:107D300008028091060190910701880F991F909386
:107D40000701809306010E94763C853409F4A6C0A1
:107D500080910C028E7F80930C020E94763C8032D0
:107D600009F0B8CE8091C00085FFFCCFF092C6002C
:107D7000609108027091090261157105B9F140E046
:107D800050E080910C02A82FA170B82FB27011C0E2
:107D9000BB2309F45CC0E0910601F0910701319624
:107DA000F0930701E09306014F5F5F4F46175707B7
:107DB000E8F4AA2369F3F999FECF209106013091E6
:107DC000070132BD21BDF89A90B58091C00085FFB2
:107DD000FCCF9093C6002F5F3F4F30930701209355
:107DE00006014F5F5F4F4617570718F38091C00099
:107DF00085FDE5CE8091C00085FFF8CFE0CE81E023
:107E00000E94C73C67CE0E94763C803209F08CCE3F
:107E10008091C00085FFFCCFF092C6008091C00029
:107E200085FFFCCFE092C6008091C00085FFFCCFAB
:107E3000D092C6008091C00085FFFCCFC092C600E2
:107E40008091C00085FFFCCFB092C60043CEE09188
:107E50000601F091070194918091C00085FFFCCF4D
:107E60009093C6009CCF80E10E94C73C33CE0E9415
:107E7000763C0E94763C182F0E94763C112309F430
:107E800083C0113009F484C08FE00E94C73C22CE29
:107E900080910C02816080930C02E5CE80910C02EF
:107EA000816080930C0259CF809107018823880F4D
:107EB000880B8A2180930B02809106019091070123
:107EC000880F991F90930701809306018091080203
:107ED00080FF09C080910802909109020196909359
:107EE000090280930802F894F999FECF1127E091D6
:107EF0000601F0910701C8E0D1E08091080290915D
:107F00000902103091F40091570001700130D9F34B
:107F100003E000935700E89500915700017001308D
:107F2000D9F301E100935700E89509901990009169
:107F3000570001700130D9F301E000935700E89534
:107F40001395103498F011270091570001700130FB
:107F5000D9F305E000935700E895009157000170B0
:107F60000130D9F301E100935700E895329602976A
:107F700009F0C7CF103011F00296E5CF112480919F
:107F8000C00085FFB9CEBCCE8EE10E94C73CA2CD19
:0C7F900085E90E94C73C9ECDF894FFCF0D
:027F9C00800063
:040000030000780081
:00000001FF